{
  "contractName": "Election",
  "abi": [
    {
      "constant": true,
      "inputs": [
        {
          "internalType": "address",
          "name": "",
          "type": "address"
        }
      ],
      "name": "eligible",
      "outputs": [
        {
          "internalType": "bool",
          "name": "",
          "type": "bool"
        }
      ],
      "payable": false,
      "stateMutability": "view",
      "type": "function"
    },
    {
      "constant": true,
      "inputs": [],
      "name": "candidatesCount",
      "outputs": [
        {
          "internalType": "uint256",
          "name": "",
          "type": "uint256"
        }
      ],
      "payable": false,
      "stateMutability": "view",
      "type": "function"
    },
    {
      "constant": true,
      "inputs": [
        {
          "internalType": "uint256",
          "name": "",
          "type": "uint256"
        }
      ],
      "name": "candidates",
      "outputs": [
        {
          "internalType": "uint256",
          "name": "id",
          "type": "uint256"
        },
        {
          "internalType": "string",
          "name": "name",
          "type": "string"
        },
        {
          "internalType": "uint256",
          "name": "voteCount",
          "type": "uint256"
        }
      ],
      "payable": false,
      "stateMutability": "view",
      "type": "function"
    },
    {
      "constant": true,
      "inputs": [],
      "name": "owner",
      "outputs": [
        {
          "internalType": "address",
          "name": "",
          "type": "address"
        }
      ],
      "payable": false,
      "stateMutability": "view",
      "type": "function"
    },
    {
      "constant": true,
      "inputs": [
        {
          "internalType": "address",
          "name": "",
          "type": "address"
        }
      ],
      "name": "voters",
      "outputs": [
        {
          "internalType": "bool",
          "name": "",
          "type": "bool"
        }
      ],
      "payable": false,
      "stateMutability": "view",
      "type": "function"
    },
    {
      "constant": true,
      "inputs": [],
      "name": "hasEnded",
      "outputs": [
        {
          "internalType": "bool",
          "name": "",
          "type": "bool"
        }
      ],
      "payable": false,
      "stateMutability": "view",
      "type": "function"
    },
    {
      "inputs": [],
      "payable": false,
      "stateMutability": "nonpayable",
      "type": "constructor"
    },
    {
      "anonymous": false,
      "inputs": [
        {
          "indexed": true,
          "internalType": "uint256",
          "name": "_candidateId",
          "type": "uint256"
        }
      ],
      "name": "votedEvent",
      "type": "event"
    },
    {
      "anonymous": false,
      "inputs": [
        {
          "indexed": true,
          "internalType": "address",
          "name": "owner",
          "type": "address"
        }
      ],
      "name": "endVotingEvent",
      "type": "event"
    },
    {
      "constant": true,
      "inputs": [
        {
          "internalType": "uint256",
          "name": "_candidateId",
          "type": "uint256"
        }
      ],
      "name": "getVotes",
      "outputs": [
        {
          "internalType": "uint256",
          "name": "",
          "type": "uint256"
        }
      ],
      "payable": false,
      "stateMutability": "view",
      "type": "function"
    },
    {
      "constant": false,
      "inputs": [
        {
          "internalType": "address",
          "name": "voter",
          "type": "address"
        }
      ],
      "name": "addVoter",
      "outputs": [],
      "payable": false,
      "stateMutability": "nonpayable",
      "type": "function"
    },
    {
      "constant": false,
      "inputs": [],
      "name": "endVoting",
      "outputs": [],
      "payable": false,
      "stateMutability": "nonpayable",
      "type": "function"
    },
    {
      "constant": false,
      "inputs": [
        {
          "internalType": "uint256",
          "name": "_candidateId",
          "type": "uint256"
        }
      ],
      "name": "vote",
      "outputs": [],
      "payable": false,
      "stateMutability": "nonpayable",
      "type": "function"
    },
    {
      "constant": true,
      "inputs": [
        {
          "internalType": "uint256",
          "name": "_Id",
          "type": "uint256"
        }
      ],
      "name": "valid",
      "outputs": [
        {
          "internalType": "bool",
          "name": "",
          "type": "bool"
        }
      ],
      "payable": false,
      "stateMutability": "view",
      "type": "function"
    }
  ],
  "bytecode": "0x608060405234801561001057600080fd5b506100556040518060400160405280600d81526020017f4a6f7269732042686f6e736f6e0000000000000000000000000000000000000081525061013660201b60201c565b6100996040518060400160405280600d81526020017f436572656d79204a6f7262796e0000000000000000000000000000000000000081525061013660201b60201c565b33600460006101000a81548173ffffffffffffffffffffffffffffffffffffffff021916908373ffffffffffffffffffffffffffffffffffffffff16021790555060018060003373ffffffffffffffffffffffffffffffffffffffff1673ffffffffffffffffffffffffffffffffffffffff16815260200190815260200160002060006101000a81548160ff021916908315150217905550610257565b6003600081548092919060010191905055506040518060600160405280600354815260200182815260200160008152506002600060035481526020019081526020016000206000820151816000015560208201518160010190805190602001906101a19291906101b2565b506040820151816002015590505050565b828054600181600116156101000203166002900490600052602060002090601f016020900481019282601f106101f357805160ff1916838001178555610221565b82800160010185558215610221579182015b82811115610220578251825591602001919060010190610205565b5b50905061022e9190610232565b5090565b61025491905b80821115610250576000816000905550600101610238565b5090565b90565b610b4f806102666000396000f3fe608060405234801561001057600080fd5b50600436106100a95760003560e01c8063a3ec138d11610071578063a3ec138d14610255578063bf8712c5146102b1578063c3403ddf146102f7578063ecb70fb714610301578063f4ab9adf14610323578063ff98109914610367576100a9565b80630121b93f146100ae5780630713b139146100dc5780632d35a8a2146101385780633477ee2e146101565780638da5cb5b1461020b575b600080fd5b6100da600480360360208110156100c457600080fd5b81019080803590602001909291905050506103a9565b005b61011e600480360360208110156100f257600080fd5b81019080803573ffffffffffffffffffffffffffffffffffffffff1690602001909291905050506106d2565b604051808215151515815260200191505060405180910390f35b6101406106f2565b6040518082815260200191505060405180910390f35b6101826004803603602081101561016c57600080fd5b81019080803590602001909291905050506106f8565b6040518084815260200180602001838152602001828103825284818151815260200191508051906020019080838360005b838110156101ce5780820151818401526020810190506101b3565b50505050905090810190601f1680156101fb5780820380516001836020036101000a031916815260200191505b5094505050505060405180910390f35b6102136107ba565b604051808273ffffffffffffffffffffffffffffffffffffffff1673ffffffffffffffffffffffffffffffffffffffff16815260200191505060405180910390f35b6102976004803603602081101561026b57600080fd5b81019080803573ffffffffffffffffffffffffffffffffffffffff1690602001909291905050506107e0565b604051808215151515815260200191505060405180910390f35b6102dd600480360360208110156102c757600080fd5b8101908080359060200190929190505050610800565b604051808215151515815260200191505060405180910390f35b6102ff61082b565b005b610309610990565b604051808215151515815260200191505060405180910390f35b6103656004803603602081101561033957600080fd5b81019080803573ffffffffffffffffffffffffffffffffffffffff1690602001909291905050506109a3565b005b6103936004803603602081101561037d57600080fd5b8101908080359060200190929190505050610aa3565b6040518082815260200191505060405180910390f35b600460149054906101000a900460ff161561042c576040517f08c379a00000000000000000000000000000000000000000000000000000000081526004018080602001828103825260128152602001807f456c656374696f6e2068617320656e646564000000000000000000000000000081525060200191505060405180910390fd5b6000803373ffffffffffffffffffffffffffffffffffffffff1673ffffffffffffffffffffffffffffffffffffffff16815260200190815260200160002060009054906101000a900460ff16156104eb576040517f08c379a000000000000000000000000000000000000000000000000000000000815260040180806020018281038252600d8152602001807f416c726561647920766f7465640000000000000000000000000000000000000081525060200191505060405180910390fd5b600160003373ffffffffffffffffffffffffffffffffffffffff1673ffffffffffffffffffffffffffffffffffffffff16815260200190815260200160002060009054906101000a900460ff166105aa576040517f08c379a00000000000000000000000000000000000000000000000000000000081526004018080602001828103825260128152602001807f496e656c696769626c6520746f20766f7465000000000000000000000000000081525060200191505060405180910390fd5b6105b381610800565b610625576040517f08c379a00000000000000000000000000000000000000000000000000000000081526004018080602001828103825260118152602001807f496e76616c69642063616e64696461746500000000000000000000000000000081525060200191505060405180910390fd5b60016000803373ffffffffffffffffffffffffffffffffffffffff1673ffffffffffffffffffffffffffffffffffffffff16815260200190815260200160002060006101000a81548160ff0219169083151502179055506002600082815260200190815260200160002060020160008154809291906001019190505550807ffff3c900d938d21d0990d786e819f29b8d05c1ef587b462b939609625b684b1660405160405180910390a250565b60016020528060005260406000206000915054906101000a900460ff1681565b60035481565b6002602052806000526040600020600091509050806000015490806001018054600181600116156101000203166002900480601f0160208091040260200160405190810160405280929190818152602001828054600181600116156101000203166002900480156107aa5780601f1061077f576101008083540402835291602001916107aa565b820191906000526020600020905b81548152906001019060200180831161078d57829003601f168201915b5050505050908060020154905083565b600460009054906101000a900473ffffffffffffffffffffffffffffffffffffffff1681565b60006020528060005260406000206000915054906101000a900460ff1681565b6000808211801561081357506003548211155b156108215760019050610826565b600090505b919050565b60001515600460149054906101000a900460ff1615151461084b57600080fd5b600460009054906101000a900473ffffffffffffffffffffffffffffffffffffffff1673ffffffffffffffffffffffffffffffffffffffff163373ffffffffffffffffffffffffffffffffffffffff161461090e576040517f08c379a000000000000000000000000000000000000000000000000000000000815260040180806020018281038252600d8152602001807f4d757374206265206f776e65720000000000000000000000000000000000000081525060200191505060405180910390fd5b6001600460146101000a81548160ff021916908315150217905550600460009054906101000a900473ffffffffffffffffffffffffffffffffffffffff1673ffffffffffffffffffffffffffffffffffffffff167fde6cf7ca9656963ee4a994d9d66622837441749eaf6e99c7cf9d710b2cf859ad60405160405180910390a2565b600460149054906101000a900460ff1681565b600460009054906101000a900473ffffffffffffffffffffffffffffffffffffffff1673ffffffffffffffffffffffffffffffffffffffff163373ffffffffffffffffffffffffffffffffffffffff1614610a49576040517f08c379a0000000000000000000000000000000000000000000000000000000008152600401808060200182810382526022815260200180610af96022913960400191505060405180910390fd5b60018060008373ffffffffffffffffffffffffffffffffffffffff1673ffffffffffffffffffffffffffffffffffffffff16815260200190815260200160002060006101000a81548160ff02191690831515021790555050565b600080600460149054906101000a900460ff168015610ac75750610ac683610800565b5b15610aee576002600084815260200190815260200160002060020154905080915050610af3565b809150505b91905056fe4f6e6c7920746865206f776e65722063616e20726567697374657220766f74657273a265627a7a72315820ff86096a1437bcce28a4f3904508431eea3481535eedea5bad13905f94d4083c64736f6c634300050b0032",
  "source": "pragma solidity 0.5.11;\n\ncontract Election {\n\n    // Candidate model\n    struct Candidate {\n        uint id;\n        string name;\n        uint voteCount;\n    }\n\n    // Mapping of accounts, with user addresses going to a bool \n    // that is true if they have voted.\n    //bool defaults to false if candidate has not voted\n    mapping(address => bool) public voters;\n    // similar mapping but represents eligibilty to vote\n    mapping(address => bool) public eligible;\n    // Mapping of candidates\n    mapping(uint => Candidate) public candidates;\n    // Stores number of candidates\n    uint public candidatesCount;\n    //The address of whoever deployed the contract\n    address public owner;\n    //Whether the election has ended or not\n    bool public hasEnded;\n\n    //Event that is emitted when someone votes\n    event votedEvent (\n        uint indexed _candidateId\n    );\n\n    //Event that is emitted when someone votes\n    event endVotingEvent (\n        address indexed owner\n    );\n    \n    //Constructor adds candidates and sets the owner to\n    //whoever deploys the contract\n    constructor ()public {\n        addCandidate(\"Joris Bhonson\");\n        addCandidate(\"Ceremy Jorbyn\");\n        owner = msg.sender;\n        eligible[msg.sender] = true;\n    }\n\n    //This function gets the votes only if the election is over\n    //then converts them to string\n    function getVotes(uint _candidateId) public view returns(uint){\n        uint value;\n        if(hasEnded && valid(_candidateId))\n        {\n            value = candidates[_candidateId].voteCount;\n            return value;\n        }else{\n            return value;\n        }\n    }\n\n    //function for adding candidates to mapping\n    function addCandidate (string memory _name) private {\n        candidatesCount ++;\n        candidates[candidatesCount] = Candidate(candidatesCount, _name, 0);\n    }\n\n    //function for registering voters\n    function addVoter(address voter) public{\n        require(msg.sender == owner,\"Only the owner can register voters\");\n        eligible[voter] = true;\n    }\n\n    //function to end voting, requires the address that is attempting\n    // to end voting to be the owners\n    function endVoting() public{\n        require(hasEnded == false);\n        require(msg.sender == owner, \"Must be owner\");\n        hasEnded = true;\n        emit endVotingEvent(owner);\n    }\n\n    //function for voting\n    function vote (uint _candidateId) public {\n        //check the election is not over\n        require(!hasEnded, \"Election has ended\");\n        // check that this account is not an account that has voted\n        require(!voters[msg.sender], \"Already voted\");\n        //check that voter is not ineligible\n        require(eligible[msg.sender],\"Ineligible to vote\");\n        //check a valid candidate has been selected\n        require(valid(_candidateId), \"Invalid candidate\");\n        // record that this account has voted\n        voters[msg.sender] = true;\n        //increment vote count\n        candidates[_candidateId].voteCount ++;\n        emit votedEvent(_candidateId);\n    }\n\n    //function for checking the candidate id is valid\n    function valid(uint _Id) public view returns(bool){\n        if(_Id > 0 && _Id <= candidatesCount){\n            return true;\n        }else{\n            return false;\n        }\n    }\n\n}\n",
  "sourcePath": "C:/Users/nasim/Dapp/Election2/contracts/Ballot.sol",
  "compiler": {
    "name": "solc",
    "version": "0.5.11+commit.c082d0b4.Emscripten.clang"
  },
  "schemaVersion": "3.3.4",
  "updatedAt": "2021-04-30T12:23:52.983Z",
  "networkType": "ethereum",
  "devdoc": {
    "methods": {}
  },
  "userdoc": {
    "methods": {}
  }
}